:020000040000fa
:080000000002040000000000f2
:020000040000fa
:100400004f812000007f24000001880000000000d0
:100410000c000700804121000100200011000700ae
:10042000000020000000e000020032000000020096
:10043000000000007e140200000000000040da000e
:100440000000fe004440a900000020000000e00081
:100450000300320000002000a00188004440a800f2
:100460000000060091018800800078000000eb0089
:1004700015003700e280400032a0b4009101ba00bc
:10048000e280400032a0b4009102ba00e280400055
:1004900032a0b4000002eb00472bde00f507b200eb
:1004a000602ce10004003a000059eb008301e900f0
:1004b000fdff3e00040037006128e100010032002a
:1004c0000082eb00040007001101ba000200e00006
:1004d000e8ff3a00000006003159ba008301e90044
:1004e0000c0032002159ba008301e90008003200f3
:1004f0000400e00003003a00e280400032a0b400b3
:10050000f5ff370011d9ba008301e900faff3a007c
:100510008100e800e180400032a0b4000000060045
:10052000140020001a013700889fbe008a9fbe0079
:10053000010578000100e0000400350008003c00df
:100540000000e000200032000500370060001000cd
:10055000e080180002003b0001f02c001a00370078
:100560000004be006011b8006b0920000982cf00b2
:10057000020039000882cf000441b00069425200f5
:100580000e00320008003b008281710061016400ae
:100590008904d1000884d3008b05e8000442e800f8
:1005a000f9ff3a00050037000804440089844c0034
:1005b0008b05e9000442e900fbff3a000f01070048
:1005c0000af0a70001f0a0004f05be004f04be00d6
:1005d0000000060003f0a200889fbe008a9fbe00b4
:1005e0008c1f78002b010700320133006450e100ba
:1005f0004f0032006420e1005200320003826c00a0
:1006000007003b000905d0000306d000820f54000c
:100610000c065d00020039000200320089017800fa
:10062000030678008582550004003d000003fd00ac
:100630008103fd008502ea008b854200840f720071
:1006400002003b0060001000e08018006011b8005c
:100650000005eb007a28e1000a0039000600780066
:10066000c75ddd00f707b200878075002d003700f9
:10067000828171000a017800610560008180d100eb
:100680000080d3008502e900f9ff3b00060440002a
:100690008784480002003b0060041400e0841c00d2
:1006a0000988a300070032008a81710082817100ed
:1006b000610164008904d1000884d3008b05e8003f
:1006c000170037000978a30013003a000b00e00080
:1006d000130034008b05e9000804440089844c00b1
:1006e0000a4474000978a3000d003a000b00e000f2
:1006f000070034008b05e9000804440089844c009d
:1007000001003a000b0020000978a300f7ff320037
:100710000001eb0002003700828171000a017800bd
:10072000b60007000cf0a70001f0a000ea003700b7
:100730006420e10002003a00838f6c00ea0033007d
:100740000801be000200be00e3003700889fbe0023
:100750008a9fbe008c1f7800ce000700d5003300b2
:1007600003866c006450e100240032006420e10044
:10077000270032006150e100220032006120e100d8
:10078000210032008b854200eb07b1000134b80034
:10079000003ab8000804420089844a00013ab800cf
:1007a0000030b8008880400009014a00040033008e
:1007b0000000400081804800020149008b05e900eb
:1007c000c909dd0083017000010032001300200020
:1007d000c814de004814dd004709de001200b20034
:1007e000c808de00088470008400070001f0a10042
:1007f0000cf0a70001f0a000b70037006120e10075
:10080000b90032000801be000200be00f7ff370049
:100810006150e100fcff3a00b3003700889fbe0042
:100820008a9fbe008c1f78009a000700a100330049
:1008300003866c006450e1002e0032006420e10069
:10084000330032006150e1002f0032006120e100ee
:100850003100320085855500eb07b000090020000b
:1008600008042000050037000804440089844c0077
:100870000a0031000603430087834b000001530048
:1008800081815b00f8ff33000203be000800a00076
:100890000804440089844c00f6ff3900c639dd00a5
:1008a0008301730001003200130020008904d1008d
:1008b0000884d3000998a300050032000800a700af
:1008c0000300a0008904d1000884d3008b05e80050
:1008d0008904d1000884d3000001eb000281d2001a
:1008e0004600070001f0a1000cf0a70001f0a000f5
:1008f000790037006420e1007b0032000801be006f
:100900000200be00f7ff37006120e10076003200f0
:100910006000b800f3ff37000000200001f8270056
:10092000f0ff37000001be00720007000470a7004e
:1009300003f0a10003f8a30013003a006509b10019
:1009400010003200090035006928e100020035007e
:1009500001002800000005000000400081804800e0
:100960008502e900fcff3a0000000600f88f420013
:10097000050035008100d1000080d3008502e80029
:10098000fcff3a00000006008000eb0000000500bc
:10099000889fbe008a9fbe00841f78003d0007002c
:1009a0004f00780011003300f0ff2f00838f6c00a0
:1009b00006003b00040565000a00a7000800370098
:1009c00009f0a6001000200008003700820f540034
:1009d000838f5c00030039001000200001003e00fe
:1009e0000000200009f0a7000000ea004f05be004b
:1009f0004f04be000000e00000000600810020005f
:100a0000618055000b003d000b00200061fe2f00af
:100a10000100e1001d003400828171006101640069
:100a20008904d1000884d3000000e800faff3a00ee
:100a3000710020006100640003007000020060008b
:100a40000900320061044400e0844c000988a500dc
:100a5000050032008b05e8006808e10002003a005a
:100a60008904d1000884d300f20f20000258e1006d
:100a700005003d00c75ddd00f907b2008980750003
:100a800008007800000006000bf827008b007800b3
:100a9000000005000004be00160007000003be00b1
:100aa0000405be000200be0012000700844f75005e
:100ab000000006000200be006450e10005003600a0
:100ac0006420e100020036000968a30001003a003a
:100ad0000800be000160a0004f0678004f05be0070
:100ae0004f04be0000000600f0ff2f00f1ff2700ba
:100af000f9ff3700c70ade00f107b200f50fb200b8
:100b000008003200e1cf4200020032000170a00074
:100b100024000500810f7000010032000408050068
:100b200044000500810f700002003a001400050027
:100b30008502e9000000400081c04800fcff3b0046
:080b40000170a0002400050073
:020000040000fa
:100008008614000086140000861400008614000080
:100018008614000086140000861400008614000070
:100028001c120000861400008614000086140000cc
:10003800861400008614000086140000e00b0000ff
:10004800b40c00008614000086140000861400001a
:100058008614000086140000861400008614000030
:100068008614000086140000861400008614000020
:100078003e1200008614000086140000861400005a
:10008800861400008614000086140000780d000015
:10009800000e0000461200008614000086140000be
:1000a80086140000861400008614000086140000e0
:1000b80086140000861400008614000086140000d0
:1000c80086140000861400008614000086140000c0
:1000d80086140000861400008614000086140000b0
:1000e80086140000861400008614000086140000a0
:1000f8008614000086140000861400008614000090
:10010800861400008614000086140000861400007f
:10011800861400008614000086140000861400006f
:10012800861400008614000086140000861400005f
:10013800861400008614000086140000861400004f
:10014800861400008614000086140000861400003f
:10015800861400008614000086140000861400002f
:10016800861400008614000086140000861400001f
:10017800861400008614000086140000861400000f
:1001880086140000861400008614000086140000ff
:1001980086140000861400008614000086140000ef
:1001a80086140000861400008614000086140000df
:1001b80086140000861400008614000086140000cf
:1001c80086140000861400008614000086140000bf
:1001d80086140000861400008614000086140000af
:1001e800861400008614000086140000861400009f
:0801f8008614000086140000cb
:020000040000fa
:10020800861400008614000086140000861400007e
:10021800861400008614000086140000861400006e
:100228001c120000861400008614000086140000ca
:10023800861400008614000086140000e00b0000fd
:10024800b40c000086140000861400008614000018
:10025800861400008614000086140000861400002e
:10026800861400008614000086140000861400001e
:100278003e12000086140000861400008614000058
:10028800861400008614000086140000780d000013
:10029800000e0000461200008614000086140000bc
:1002a80086140000861400008614000086140000de
:1002b80086140000861400008614000086140000ce
:1002c80086140000861400008614000086140000be
:1002d80086140000861400008614000086140000ae
:1002e800861400008614000086140000861400009e
:1002f800861400008614000086140000861400008e
:10030800861400008614000086140000861400007d
:10031800861400008614000086140000861400006d
:10032800861400008614000086140000861400005d
:10033800861400008614000086140000861400004d
:10034800861400008614000086140000861400003d
:10035800861400008614000086140000861400002d
:10036800861400008614000086140000861400001d
:10037800861400008614000086140000861400000d
:1003880086140000861400008614000086140000fd
:1003980086140000861400008614000086140000ed
:1003a80086140000861400008614000086140000dd
:1003b80086140000861400008614000086140000cd
:1003c80086140000861400008614000086140000bd
:1003d80086140000861400008614000086140000ad
:1003e800861400008614000086140000861400009d
:0803f8008614000086140000c9
:020000040000fa
:100b48001000fa00004f780011479800120798002b
:100b5800230798001e80fb006007980020042000ef
:100b6800ee009000808f50004c00320030042000ce
:100b7800ee009000808f50008600320010042000a4
:100b8800ee009000808f500001003200be00370058
:100b98001e4090000080fb00500798005e00900007
:100ba800ea0f5000b8003e0010002000de00900060
:100bb8000100dd0070079800c0792000fe00900059
:100bc800008060000000e00024003a00fe00900071
:100bd800638060000000e00001003a00aa003700ce
:100be8001e4090008080fb00100020000100dd0006
:100bf800800078000080eb008100500060198000c0
:100c0800008160001e4090008080fb001e00900064
:100c18000100dd0000007100601988001e4090008e
:100c28008080fb00100020000100dd0080007800bb
:100c38000080eb00810050000016800000816000f9
:100c48001e4090008080fb002e0090000100dd0017
:100c580000007100001688008b0037001e409000cd
:100c68008080fb00100020000100dd00800078007b
:100c78000080eb00810050000016800000816000b9
:100c88001e4090008080fb002e0090000100dd00d7
:100c980000007100001688007b0037001e4090009d
:100ca8000080fb00400798004e0090000000e00024
:100cb80075003500ce009000e38f5000040034002a
:100cc8004e009000ef0f50006f003c0021003700ed
:100cd8001e4090000080fb008080e800100020008b
:100ce8000100dd00800078000080eb0081005000ea
:100cf80060198000008160001e4090000080fb00a9
:100d08008080e8001e0090000100dd0000007100f6
:100d1800601988001e4090008080fb0010002000b1
:100d28000100dd00800078000080eb0081005000a9
:100d380040168000008160001e4090008080fb000b
:100d48002e0090000100dd000000710040168800b0
:100d58004d0037001e4090008080fb0010002000ee
:100d68000100dd00800078000080eb008100500069
:100d780040168000008160001e4090008080fb00cb
:100d88002e0090000100dd00000071004016880070
:100d98003d0037001e4090000080fb00300798009f
:100da800be0090000100e000370035003e009000d2
:100db800e20f500004003400be009000e98f50009c
:100dc80031003c00210037001e4090000080fb00ed
:100dd800e6004000100020000100dd0080007800df
:100de8000080eb00810050006019800000816000e5
:100df8001e4090000080fb00e60040001e009000ae
:100e08000100dd0000007100601988001e4090009c
:100e18008080fb00100020000100dd0080007800c9
:100e28000080eb0081005000801680000081600087
:100e38001e4090008080fb002e0090000100dd0025
:100e480000007100801688000f0037001e409000d7
:100e58008080fb00100020000100dd008000780089
:100e68000080eb0081005000801680000081600047
:100e78001e4090008080fb002e0090000100dd00e5
:100e880000007100801688000080fa00000006004b
:100e98000800fa00004f78001147980012079800e0
:100ea8001e80fb003007980020042000be00900040
:100eb800808f500027003200300420003e0190004f
:100ec800800f51003800320010042000be0090004e
:100ed800808f500001003200470037001e4090000c
:100ee8000080fb00200798002e019000ea0f5100b7
:100ef80041003e00100020002e0190008200dd001d
:100f0800f0792000008060000000e00001003a0055
:100f1800390037001e4090008080fb001000200040
:100f28000100dd00800078000080eb0081005000a7
:100f380020168000008160001e4090008080fb0029
:100f48001e0090000100dd000000710020168800de
:100f5800290037001e4090000080fb006000400020
:100f6800ef0f500024003e001e4090008080fb00e0
:100f7800100020000100dd00800078000080eb00f8
:100f88008100500060168000008160001e409000c3
:100f98008080fb001e0090000100dd000000710051
:100fa80060168800140037001e4090000080fb0087
:100fb80060004000e90f50000f003e001e40900006
:100fc8008080fb00100020000100dd008000780018
:100fd8000080eb0081005000a016800000816000b6
:100fe8001e4090008080fb001e0090000100dd0084
:100ff80000007100a01688000080fa0000000600ba
:101008000800fa00004f7800114798001e80fb0086
:101018003007980020042000be009000808f500008
:101028001f003200300420003e019000800f510064
:101038002800320010042000be009000808f50006d
:1010480001003200300037001e4090000080fb0095
:10105800200798002e019000ea0f51002a003e0058
:10106800100020002e0190008200dd00f0792000a1
:10107800008060000000e00001003a002200370014
:10108800111680001e4090000080fb000008de0062
:101098000080fb0061006000100798001c0037000a
:1010a8001e4090000080fb0060004000ef0f5000e1
:1010b80015003e00511680001e4090000080fb0085
:1010c8000008de000080fb00610060001007980047
:1010d8000f0037001e4090000080fb0060004000b9
:1010e800e90f500008003e00911680001e40900055
:1010f8000080fb000008de000080fb00610060004b
:101108001007980002003700f00f20001007980021
:101118001e0090000080fa00000006000600fa0099
:10112800004f7800110798001e80fb0020079800e8
:1011380020042000ae009000808f50000c00320088
:1011480030042000ae009000808f50000b00320069
:1011580010042000ae009000808f50000100320083
:10116800080037001e009000201688000500370090
:101178009e00900061168800020037001e00900053
:10118800a01688000080fa00000006000600fa0099
:10119800004f78001e80fb002007980020042000e4
:1011a800ae009000808f50000c0032003004200008
:1011b800ae009000808f50000b0032001004200019
:1011c800ae009000808f5000010032000900370007
:1011d800101680001007980008003700511680008c
:1011e8001107980005003700901680001007980036
:1011f800020037008000eb00110798001e009000e5
:101208000080fa00000006000000fa004116800085
:10121800f03f2800008060004016880051168000ca
:10122800f03f28000080600050168800c0c1bf0051
:101238006f4060000044a000c0e1b700c0c1bf001b
:10124800c040b300c0e1b700011c20009140780005
:10125800c0cfb30000c06000c0e1b7000000eb00e1
:10126800100e8800c941a900c921a900c901a80018
:10127800c8c1a800c8a1a800c881a800c801a900c1
:10128800c16920009140780000ceb30000c0600022
:10129800f040b3009ce6b700c841a800c1e1a8002f
:1012a800400120001a0007000080fa000000060034
:1012b8000000fa00d0c2a900d0e2a900d2c2a90059
:1012c800d2e2a900c0c5bf006f4060000044a00082
:1012d800c0e5b700c0c5bf00c040b300c0e5b70057
:1012e800015c200091407800c0cfb30000c06000ce
:1012f800c0e5b7000000eb00102e8800c905a90062
:10130800c805a800c1e5a8000080fa000000060092
:101318000400fa00100798001e0090006101b80050
:10132800900320000012b8006010b900050378008f
:1013380000034300900320000098b9000003430015
:1013480086027800040078000000e900000f7800a9
:101358001e0078000000e000020035001e00780042
:10136800200e88000080fa00000006000400fa0041
:10137800100798001e0090006101b800900320003b
:101388000012b8006010b90005037800000343009c
:10139800900320000098b9000003430086027800fb
:1013a800040078000000e900000f78001e007800b3
:1013b8000000e000020035001e007800202e8800a2
:1013c8000080fa00000006001800fa0010079800d4
:1013d8002107980062479800200e80000000e8006e
:1013e80092032000110009000280d800000f780045
:1013f8006011b8001e009000ae00900046fc070087
:101408000000e00001003200160037006e40900036
:101418000080fb00300f98003e089000e20f50005b
:101428000a0032003e089000e30f50000a00320024
:101438003e089000e10f50000100320080003700a4
:101448000000eb00b00e88007d0037000000eb00c4
:10145800c00e88007a0037000000eb00d00e88002c
:101468007700370002002000832c24001e00900023
:10147800ae00900028fc07000000e00001003400e6
:101488006f0037006e4090000080fb00200f98002e
:101498002e089000e20f5000280032002e0890001d
:1014a800e30f5000460032002e089000e10f500074
:1014b80001003200620037001e007800cf80de0095
:1014c80017fc0700000f9800110f98001e00e0009d
:1014d80007003d0002002000037824000e08900059
:1014e8009e0890003afc0700000f9800110f980022
:1014f80002002000432624000e0890009e08900059
:1015080090fc070002002000832c2400c1fc070087
:101518000001be002efc07001e019000ae019000e5
:1015280088fc07000200200003f8230027fc0700be
:10153800fafc0700b00e8800410037001e00780052
:10154800cf80de00f6fb070060079800710798005f
:101558001e00e00007003d00020020000378240080
:101568006e009000fe00900019fc070060079800cc
:101578007107980002002000432624006e009000a6
:10158800fe0090006ffc070002002000832c24005e
:10159800a0fc07000001be000dfc07001e01900022
:1015a800ae01900067fc07000200200003f823004a
:1015b80006fc0700d9fc0700c00e88002000370091
:1015c8001e007800cf80de00d5fb0700400798009a
:1015d800510798001e00e00007003d0002002000af
:1015e800037824004e009000de009000f8fb07000e
:1015f8004007980051079800020020004326240065
:101608004e009000de0090004efc07000200200013
:10161800832c24007ffc07000001be00ecfb0700c0
:101628001e019000ae01900046fc07000200200059
:1016380003f82300e5fb0700b8fc0700d00e88007c
:101648000080fa00000006000a00fa00100798005f
:1016580021079800200e80000000e8009203200077
:10166800110009000280d800000f78006011b8004e
:101678001e009000ae009000a7fb07000000e000ed
:1016880001003200030037000000eb00b02e880094
:101698002800370002002000832c24001e00900040
:1016a800ae0090009cfb07000000e0000100340041
:1016b800200037001e007800cf80de0098fb07006e
:1016c80030079800410798001e00e00007003d0021
:1016d80002002000037824003e009000ce00900015
:1016e800bbfb070030079800410798000200200064
:1016f800432624003e009000ce00900011fc070015
:1017080002002000832c240042fc07000001be00d8
:10171800affb07001e019000ae01900009fc070016
:101728000200200003f82300a8fb07007bfc070049
:10173800b02e88000080fa00000006000600fa00bb
:10174800000f780012079800230798001e00780001
:10175800effe070012c0b3001e009000ae0090001c
:1017680019ff070022c0b3001e009000ae009000d1
:1017780015ff070032c0b3001e009000ae009000b5
:1017880011ff07000080fa00000006000600fa00ba
:10179800000f780012079800230798001e007800b1
:1017a800f2fe07001e009000ae009000a6ff0700a2
:1017b8000080fa0000000600801f78000000fa0090
:1017c800004080000000e800004088001000200071
:1017d8002040880084e0a9000080fa004f007800cb
:1017e800004006000000fa000000eb003008880006
:1017f80011e1a90011a1a90010c1a900011120003f
:1018080091407800f0ccb30000c060000044a00014
:1018180010e1b7001061a9001021a900710a200089
:1018280091407800f0c8b30000c060000044a000f8
:10183800a7e0b70084e0a90094e0a8000080fa00bf
:10184800000006000000fa0080088000010028005f
:1018580001007000800888000080fa00000006007f
:101868000000fa0080088000f1ff270001006000f6
:10187800800888000080fa00000006000000fa00d6
:101888000000eb00300888000080fa000000060025
:101898000200fa00000f78001e0078003008880067
:1018a8000080fa00000006000200fa00000f78002d
:1018b8001e007800600888000080fa00000006001a
:1018c8000000fa00e01c2000600888000080fa0090
:1018d800000006000600fa00004f78001e04e00031
:1018e80019003200d0c8b3009e4f100016003e0009
:1018f8001e4078000000fb00cf80de0008fb0700d8
:1019080010079800210798001e04e00007003d001a
:1019180002002000033824001e009000ae00900052
:101928002bfb070010079800210798001e00900065
:10193800ae00900062302b00d3b02300b5fb070047
:10194800f6fb0700600888000080fa000000060027
:101958000000fa00300880000080fa00000006004d
:10196800801f78000000fa00104080000000e800a6
:101978001040880010002000304088008500a90031
:101988000080fa004f007800004006000000fa00ce
:101998000000eb005008880013e1a90013a1a9007a
:1019a80012c1a900211120009140780000c3b300a2
:1019b80000c0700012e1b7001221a900810a2000be
:1019c8009140780080cfb30000c060000014a000f0
:1019d800a8e0b7008500a9009500a8000080fa00db
:1019e800000006000000fa009008800001002800ae
:1019f80001007000900888000080fa0000000600ce
:101a08000000fa0090088000f1ff27000100600044
:101a1800900888000080fa00000006000000fa0024
:101a28000000eb00500888000080fa000000060063
:101a38000200fa00000f78001e00780050088800a5
:101a48000080fa00000006000200fa00000f78008b
:101a58001e007800700888000080fa000000060068
:101a68000600fa00000f78001e00e000180032009f
:101a7800701b21009e0f100015003e001e0078000c
:101a8800cf80de00a6fa070010079800210798000b
:101a98001e00e00007003d0002002000037824003b
:101aa8001e009000ae009000c9fa070010079800c9
:101ab80021079800b28b2b00d3d823001e0090007a
:101ac800ae00900053fb070094fb070070088800e5
:101ad8000080fa00000006000000fa0050088000ac
:101ae8000080fa00000006000000fa008760a900e4
:101af8000080fa00004006000200fa00004f78005b
:101b08000000eb00a00888001fe1a9001fa1a900a0
:101b18001ec1a9009e40780063c060006340600059
:101b28004401dd00e111200091407800f0ccb300c1
:101b380000c06000024070001ee1b7001e21a9002d
:101b4800110b200091407800f0c8b30000c060007d
:101b580001c4b30001407000b1e0b7008760a9007c
:101b68009760a8000080fa00000006000000fa0054
:101b7800f00880000100280001007000f0088800cb
:101b88000080fa00000006000000fa00f00880005b
:101b9800f1ff270001006000f00888000080fa00cb
:101ba800000006000000fa000000eb00a008880012
:101bb8000080fa00000006000200fa00000f78001a
:101bc8001e007800a00888000080fa0000000600c7
:101bd8000200fa00000f78001e007800d008880084
:101be8000080fa00000006000000fa00a00880004b
:101bf8000080fa00000006000000fa008780a900b3
:101c08000080fa00004006000200fa00004f780049
:101c18000000eb00c008880021e1a90021a1a9006b
:101c280020c1a9009e40780063c060006340600046
:101c38004401dd000112200091407800f0ccb3008f
:101c480000c060000240700020e1b7002021a90018
:101c5800210b20009140780080cfb30000c06000c5
:101c68005040b300b2e0b7008780a9009780a80071
:101c78000080fa00000006000000fa000009800059
:101c88000100280001007000000988000080fa00a7
:101c9800000006000000fa0000098000f1ff27009c
:101ca80001006000000988000080fa0000000600ba
:101cb8000000fa000000eb00c00888000080fa006d
:101cc800000006000200fa00000f78001e007800ed
:101cd800c00888000080fa00000006000200fa0030
:101ce800000f78001e007800e00888000080fa00e5
:101cf800000006000000fa00c00880000080fa001a
:101d0800000006000000fa0040c2bf000080fb008f
:101d18004600de00614060000080fb000080fa00a1
:101d2800000006000000fa0040c2bf000080fb006f
:101d38000000d100614060000080fb000080fa00d4
:101d4800000006000000fa0040c2bf0061406000c9
:101d58000080fb000080fa00000006000000fa0086
:101d68000000eb0000128800116c20009140780000
:101d780000ceb30000c060000034a000c1e6b70088
:101d8800916a20009140780000ceb30000c0600046
:101d98000004a000a9e6b700c822a9002c63a80087
:101da800816a20009140780000ceb30000c0600036
:101db800a8e6b700c802a8002c43a800216c2000a0
:101dc8009140780000ceb30000c060009040b3009e
:101dd800c2e6b700c842a9002c83a800cc42a800dc
:101de800316c20009140780000ceb30000c0600044
:101df8007040b300c3e6b700c862a9002ca3a800ce
:101e0800c0e2a900d0c2a800b013200010128800b8
:101e18000000eb002012880001128000000028005a
:101e280000807000001288000080fa0000000600a0
:101e38000000fa0000128000f1ff27000100600096
:101e4800001288000080fa00000006000200fa0074
:101e5800004f7800b3ff07000000e0000a003a00d6
:101e6800ca42a9001e80fb0040128800adff07008f
:101e78000000e000fdff3a00b2ff07000000e000ac
:101e8800fdff3200ca42a800401280000080fb001b
:101e98000080fa00000006000400fa0020479800bd
:101ea800314798009fff07000000e00016003a0045
:101eb800ca42a9002e4090000080fb004012880012
:101ec80098ff07000000e000fdff3a009dff0700b3
:101ed8000000e000fdff320040128000004f780053
:101ee8003e4090000080fb00401288008dff0700f4
:101ef8000000e000fdff3a0092ff07000000e0004c
:101f0800fdff3200ca42a800401280000080fb009a
:101f18000080fa00000006000800fa00004f780070
:101f280011479800224798001e80fb003007980050
:101f38003e009000e60f50002a0032003e0090005c
:101f4800e60f50000a003c003e009000e10f5000f0
:101f58001e0032003e009000e30f500013003200d4
:101f68003e0090000000e0000b0032003300370014
:101f78003e009000e80f5000250032003e0090001f
:101f8800e80f50001d0035003e009000ea0f500099
:101f9800240032002900370000c0eb00abff070027
:101fa8000080fb0020079800280037009e40900022
:101fb80000c2b30000c07000ae409000b6ff07003a
:101fc8000080fb0020079800200037008040eb00cd
:101fd8001e409000b0ff07000080fb00200798001b
:101fe8001a003700ae40900000cab300aaff0700ed
:101ff8000080fb00200798001400370010ceb300c3
:1020080092ff07000080fb00200798000f003700b0
:1020180020ceb3008dff07000080fb00200798004a
:102028000a00370031c7b30000c5b3009aff0700a4
:102038000080fb00200798000400370000c0eb0078
:1020480082ff07000080fb00200798002e00900008
:102058000080fa00000006000600fa001007980049
:10206800414798002fff07000000e00024003a00d5
:10207800ca42a9004e4090000080fb004012880030
:1020880028ff07000000e000fdff3a002dff0700d1
:102098000000e000fdff3200401280008040780020
:1020a8001e009000014878000040eb00004f7800c7
:1020b8000f0037000000eb004012880019ff0700ee
:1020c8000000e000fdff3a001eff07000000e000ee
:1020d800fdff32001e80fb00800078001e0090008b
:1020e8008080400040128000804878001e4fe80041
:1020f80040c0b3009e4f1000eeff3600ca42a80051
:10210800401280000080fb000080fa0000000600fa
:102118000600fa00100798004147980001ff0700e1
:102128000000e00023003a00ca42a900ce40900017
:1021380000c2b30000c070000080fb00401288009d
:10214800f8fe07000000e000fdff3a00fdfe070072
:102158000000e000fdff32000040eb00004f780077
:102168001000370040128000104798001e80fb00c6
:10217800800078001e009000008040001040780029
:102188000080fb0040128800e6fe07000000e00027
:10219800fdff3a00ebfe07000000e000fdff320003
:1021a8001e4fe80040c0b3009e4f1000edff360000
:1021b800ca42a800401280000080fb000080fa009c
:1021c800000006000000fa00bdfd070040062000e0
:1021d80023fe07000000eb00404088000000eb00f1
:1021e800504088000000eb00604088000000eb00d1
:1021f800704088000000eb00204088000000eb00e1
:10220800304088000000eb00004088000000eb0030
:10221800104088008bfd0700f2fd07000000370022
:1022280020408000e10f500012003a000000eb004f
:102238002040880000408000e50f500003003a006d
:10224800100020004040880009003700004080004e
:10225800e90f5000060036000000eb00004088003f
:1022680010002000404088001000200050408800e6
:102278005501070040408000e10f500003003a007c
:102288000000eb00404088005201070050408000e9
:10229800e10f500003003a000000eb0050408800b6
:1022a8004f01070030408000e10f500012003a0053
:1022b8000000eb003040880010408000e50f50001f
:1022c80003003a0010002000604088000900370031
:1022d80010408000e90f5000060036000000eb00b7
:1022e8001040880010002000604088001000200086
:1022f800704088003d01070060408000e10f5000f9
:1023080003003a000000eb0060408800400107002d
:1023180070408000e10f5000c1ff3a000000eb0060
:10232800704088003d010700bdff37000000fa003b
:10233800601980000040a00060198800c842a90008
:10234800c0e2a900d0c2a9000080fa00000006007f
:102358000000fa00ccc2bf000080fb004200de0093
:102368006140600000417800024078000080ea0087
:102378008180ea0061406000614060004201dd0048
:10238800a12c200091407800b0cfb30000c06000bd
:1023980002407000cae2b7000080fa0000000600a0
:1023a8000000fa00c4c2bf000080fb004700de0046
:1023b80000417800024078000080ea008180ea004d
:1023c80061406000c700dd00c2c2bf000074a10008
:1023d80001407000c2e2b7000080fa000000060069
:1023e8000000fa00d4c2bf000080fb004600de00f7
:1023f8006140600000417800024078000080ea00f7
:102408008180ea0061406000614060004601dd00b3
:10241800212d200091407800f0cbb30000c060006f
:1024280002407000d2e2b7000080fa000000060007
:10243800801f78000000fa008400a90082c0bf0055
:10244800614060000004e000040032001000200039
:10245800804088008200a900030037000000eb00dc
:10246800804088008200a8000080fa004f007800b1
:10247800004006000000fa008680a9000080fa00eb
:10248800004006000000fa0087a0a9000080fa00ba
:10249800004006000000fa0081e0a80070c0b30008
:1024a8000600070060c0b3001400070050c0b30066
:1024b800240007000080fa00000006000200fa006d
:1024c800004f78009e40780067c060006741600058
:1024d800410a20009140780080cfb30000c060001e
:1024e80002407000a4e0b7008400a9009400a8008e
:1024f8008200a8000080fa00000006000200fa002e
:10250800004f780081c6bf00f041b30081e6b700f4
:102518009e40780067c0600067416000e10a2000c3
:102528009140780080cfb30000c060000240700086
:10253800aee0b7008680a9009680a8000080fa0067
:10254800000006000200fa00004f78002168200011
:102558009140780000ceb30000c060006041b30035
:1025680082e6b7009e40780067c060006740600060
:102578004401dd00210b200091407800f0c8b30031
:1025880000c0600002407000b2e0b70087a0a90058
:1025980097a0a8008240a8000080fa00000006006a
:1025a8000000fa008001eb001200200091c0b30087
:1025b80010c4b30062f9070013fb07000080fa009b
:1025c800000006000200fa00004f78001e81fb00a0
:1025d80091c0b30010c4b3002dfa07000080fa00c0
:1025e800000006000600fa00004f780040c6b3005d
:1025f8009e4f10000200360040c6b300004f78001e
:102608001e4078000000fb00cf80de00c4f7070002
:1026180010079800210798001e04e00007003d00fd
:1026280002002000033824001e009000ae00900035
:10263800e7f70700100798002107980022c0b300a9
:102648001e009000ae0090005ffb07000080fa00bb
:10265800000006000000fa00c002a800c022a8007e
:102668002c03a9002c23a9000000eb000019880006
:102678000000eb00101988002143a80000f0210099
:102688002019880021e3a8000080fa000000060055
:102698000200fa00004f780028c3bf007f406000a6
:1026a8008080fb001e80fb00808f500009003200f4
:1026b8009e4078007fc060007f416000813220002a
:1026c8009140780000ceb30000c060000240700066
:1026d80028e3b7002023a800900b20000100200069
:1026e800620007002023a90020c3bf0061406000ea
:1026f8000004e000fcff3200001880000080fa00af
:10270800000006000000fa00d122a800c9e2a800d3
:10271800c16920009140780000ceb30000c060007d
:10272800f040b3009ce6b700d169200091407800e2
:1027380000ceb30000c060009041b3009de6b70032
:10274800011e20009140780070ceb30000c06000e8
:102758000044a000e0e1b700e1c1bf007040b30051
:10276800e1e1b70000d02700200f88000080fa00c0
:10277800000006000000fa00200f80000080fa0028
:10278800000006000000fa0000d02700200f880093
:102798000080fa00000006000000fa00410007006f
:1027a8008001eb0012002000a1c0b30010c4b300e8
:1027b800e3f807007aff07000040eb0081ff0700fd
:1027c8000080fa00000006000000fa000080fa000d
:1027d800000006000000fa000080fa000000060071
:1027e8000000fa000080fa00000006000000fa006d
:1027f80012c8bf006a4040007aff070012c8bf0035
:102808006540400012e8b7000080fa0000000600aa
:102818000000fa000080fa00000006000000fa003c
:082828000080fa000000060028
:020000040000fa
:102830001008000002000000000000000008000076
:10284000080000000200000000000000000000007e
:102850000000000008080000080000000000000060
:102860001208000002000000020000000a00000040
:042870000000000064
:020000040000fa
:10287400f03fb1000180b10006003500ee0309000d
:1028840000000000403fb1000180b100fbff3d00ab
:102894001000b000203fb0000200350000800900a5
:1028a40000000000000006000000fa000900070014
:1028b40069ff070055fa0700f7fe070028fd070027
:1028c40091ff0700c8fb070031fc07000080fa00f5
:1028d400000006000000fa00817420009140780096
:1028e40000ccb30000c060000004a00048e7b700bb
:1028f4000080fa00000006000000fa00a7ff0700ad
:0829040031fe0700ffff370060
:020000040000fa
:04290c000000fe00c9
:00000001FF
